{
    "contractName": "CMON",
    "abi": [
        {
            "inputs": [],
            "stateMutability": "nonpayable",
            "type": "constructor"
        },
        {
            "anonymous": false,
            "inputs": [
                {
                    "indexed": true,
                    "internalType": "address",
                    "name": "_owner",
                    "type": "address"
                },
                {
                    "indexed": true,
                    "internalType": "address",
                    "name": "_spender",
                    "type": "address"
                },
                {
                    "indexed": false,
                    "internalType": "uint256",
                    "name": "_value",
                    "type": "uint256"
                }
            ],
            "name": "Approval",
            "type": "event"
        },
        {
            "anonymous": false,
            "inputs": [
                {
                    "indexed": true,
                    "internalType": "address",
                    "name": "_from",
                    "type": "address"
                },
                {
                    "indexed": true,
                    "internalType": "address",
                    "name": "_to",
                    "type": "address"
                },
                {
                    "indexed": false,
                    "internalType": "uint256",
                    "name": "_value",
                    "type": "uint256"
                }
            ],
            "name": "Transfer",
            "type": "event"
        },
        {
            "inputs": [
                {
                    "internalType": "address",
                    "name": "_owner",
                    "type": "address"
                },
                {
                    "internalType": "address",
                    "name": "_spender",
                    "type": "address"
                }
            ],
            "name": "allowance",
            "outputs": [
                {
                    "internalType": "uint256",
                    "name": "remaining",
                    "type": "uint256"
                }
            ],
            "stateMutability": "view",
            "type": "function"
        },
        {
            "inputs": [
                {
                    "internalType": "address",
                    "name": "",
                    "type": "address"
                },
                {
                    "internalType": "address",
                    "name": "",
                    "type": "address"
                }
            ],
            "name": "allowed",
            "outputs": [
                {
                    "internalType": "uint256",
                    "name": "",
                    "type": "uint256"
                }
            ],
            "stateMutability": "view",
            "type": "function"
        },
        {
            "inputs": [
                {
                    "internalType": "uint256",
                    "name": "reqID",
                    "type": "uint256"
                },
                {
                    "internalType": "bool",
                    "name": "answer",
                    "type": "bool"
                }
            ],
            "name": "answerRequest",
            "outputs": [],
            "stateMutability": "nonpayable",
            "type": "function"
        },
        {
            "inputs": [
                {
                    "internalType": "address",
                    "name": "_spender",
                    "type": "address"
                },
                {
                    "internalType": "uint256",
                    "name": "_value",
                    "type": "uint256"
                }
            ],
            "name": "approve",
            "outputs": [
                {
                    "internalType": "bool",
                    "name": "success",
                    "type": "bool"
                }
            ],
            "stateMutability": "nonpayable",
            "type": "function"
        },
        {
            "inputs": [
                {
                    "internalType": "address",
                    "name": "owner",
                    "type": "address"
                }
            ],
            "name": "balanceOf",
            "outputs": [
                {
                    "internalType": "uint256",
                    "name": "",
                    "type": "uint256"
                }
            ],
            "stateMutability": "view",
            "type": "function"
        },
        {
            "inputs": [
                {
                    "internalType": "address",
                    "name": "owner",
                    "type": "address"
                }
            ],
            "name": "balanceOfETH",
            "outputs": [
                {
                    "internalType": "uint256",
                    "name": "",
                    "type": "uint256"
                }
            ],
            "stateMutability": "view",
            "type": "function"
        },
        {
            "inputs": [
                {
                    "internalType": "address",
                    "name": "",
                    "type": "address"
                }
            ],
            "name": "balances",
            "outputs": [
                {
                    "internalType": "uint256",
                    "name": "",
                    "type": "uint256"
                }
            ],
            "stateMutability": "view",
            "type": "function"
        },
        {
            "inputs": [],
            "name": "buy",
            "outputs": [],
            "stateMutability": "payable",
            "type": "function"
        },
        {
            "inputs": [],
            "name": "decimals",
            "outputs": [
                {
                    "internalType": "uint8",
                    "name": "",
                    "type": "uint8"
                }
            ],
            "stateMutability": "view",
            "type": "function"
        },
        {
            "inputs": [],
            "name": "getCost",
            "outputs": [
                {
                    "internalType": "uint256",
                    "name": "",
                    "type": "uint256"
                }
            ],
            "stateMutability": "view",
            "type": "function"
        },
        {
            "inputs": [],
            "name": "getPhase",
            "outputs": [
                {
                    "internalType": "enum CMON.phases",
                    "name": "phase",
                    "type": "uint8"
                }
            ],
            "stateMutability": "view",
            "type": "function"
        },
        {
            "inputs": [],
            "name": "getRemains",
            "outputs": [
                {
                    "internalType": "uint256",
                    "name": "",
                    "type": "uint256"
                }
            ],
            "stateMutability": "view",
            "type": "function"
        },
        {
            "inputs": [],
            "name": "getRequests",
            "outputs": [
                {
                    "components": [
                        {
                            "internalType": "uint256",
                            "name": "id",
                            "type": "uint256"
                        },
                        {
                            "internalType": "string",
                            "name": "name",
                            "type": "string"
                        },
                        {
                            "internalType": "address",
                            "name": "addr",
                            "type": "address"
                        }
                    ],
                    "internalType": "struct CMON.Request[]",
                    "name": "requests",
                    "type": "tuple[]"
                }
            ],
            "stateMutability": "view",
            "type": "function"
        },
        {
            "inputs": [
                {
                    "internalType": "address",
                    "name": "userAddr",
                    "type": "address"
                }
            ],
            "name": "getRoleID",
            "outputs": [
                {
                    "internalType": "enum CMON.roles",
                    "name": "",
                    "type": "uint8"
                }
            ],
            "stateMutability": "view",
            "type": "function"
        },
        {
            "inputs": [],
            "name": "getState",
            "outputs": [
                {
                    "components": [
                        {
                            "internalType": "uint256",
                            "name": "time_start",
                            "type": "uint256"
                        },
                        {
                            "internalType": "uint256",
                            "name": "time_now",
                            "type": "uint256"
                        },
                        {
                            "internalType": "uint256",
                            "name": "time_dif",
                            "type": "uint256"
                        },
                        {
                            "internalType": "uint256",
                            "name": "time_system",
                            "type": "uint256"
                        },
                        {
                            "internalType": "enum CMON.phases",
                            "name": "phase",
                            "type": "uint8"
                        }
                    ],
                    "internalType": "struct CMON.State",
                    "name": "",
                    "type": "tuple"
                }
            ],
            "stateMutability": "view",
            "type": "function"
        },
        {
            "inputs": [],
            "name": "getTimeDif",
            "outputs": [
                {
                    "internalType": "uint256",
                    "name": "",
                    "type": "uint256"
                }
            ],
            "stateMutability": "view",
            "type": "function"
        },
        {
            "inputs": [],
            "name": "getTimeNow",
            "outputs": [
                {
                    "internalType": "uint256",
                    "name": "",
                    "type": "uint256"
                }
            ],
            "stateMutability": "view",
            "type": "function"
        },
        {
            "inputs": [],
            "name": "getTimeStart",
            "outputs": [
                {
                    "internalType": "uint256",
                    "name": "",
                    "type": "uint256"
                }
            ],
            "stateMutability": "view",
            "type": "function"
        },
        {
            "inputs": [],
            "name": "getTimeSystem",
            "outputs": [
                {
                    "internalType": "uint256",
                    "name": "",
                    "type": "uint256"
                }
            ],
            "stateMutability": "view",
            "type": "function"
        },
        {
            "inputs": [],
            "name": "init",
            "outputs": [],
            "stateMutability": "nonpayable",
            "type": "function"
        },
        {
            "inputs": [],
            "name": "name",
            "outputs": [
                {
                    "internalType": "string",
                    "name": "",
                    "type": "string"
                }
            ],
            "stateMutability": "view",
            "type": "function"
        },
        {
            "inputs": [
                {
                    "internalType": "address",
                    "name": "to",
                    "type": "address"
                },
                {
                    "internalType": "uint256",
                    "name": "amount",
                    "type": "uint256"
                }
            ],
            "name": "reward",
            "outputs": [],
            "stateMutability": "nonpayable",
            "type": "function"
        },
        {
            "inputs": [
                {
                    "internalType": "string",
                    "name": "name",
                    "type": "string"
                }
            ],
            "name": "sendRequest",
            "outputs": [],
            "stateMutability": "nonpayable",
            "type": "function"
        },
        {
            "inputs": [
                {
                    "internalType": "uint256",
                    "name": "microether",
                    "type": "uint256"
                }
            ],
            "name": "setCost",
            "outputs": [],
            "stateMutability": "nonpayable",
            "type": "function"
        },
        {
            "inputs": [
                {
                    "internalType": "uint256",
                    "name": "inMinutes",
                    "type": "uint256"
                }
            ],
            "name": "setTimeDif",
            "outputs": [],
            "stateMutability": "nonpayable",
            "type": "function"
        },
        {
            "inputs": [],
            "name": "setTimeStart",
            "outputs": [],
            "stateMutability": "nonpayable",
            "type": "function"
        },
        {
            "inputs": [],
            "name": "symbol",
            "outputs": [
                {
                    "internalType": "string",
                    "name": "",
                    "type": "string"
                }
            ],
            "stateMutability": "view",
            "type": "function"
        },
        {
            "inputs": [],
            "name": "totalSupply",
            "outputs": [
                {
                    "internalType": "uint256",
                    "name": "",
                    "type": "uint256"
                }
            ],
            "stateMutability": "view",
            "type": "function"
        },
        {
            "inputs": [
                {
                    "internalType": "address",
                    "name": "_to",
                    "type": "address"
                },
                {
                    "internalType": "uint256",
                    "name": "_value",
                    "type": "uint256"
                }
            ],
            "name": "transfer",
            "outputs": [
                {
                    "internalType": "bool",
                    "name": "",
                    "type": "bool"
                }
            ],
            "stateMutability": "nonpayable",
            "type": "function"
        },
        {
            "inputs": [
                {
                    "internalType": "address",
                    "name": "_from",
                    "type": "address"
                },
                {
                    "internalType": "address",
                    "name": "_to",
                    "type": "address"
                },
                {
                    "internalType": "uint256",
                    "name": "_value",
                    "type": "uint256"
                }
            ],
            "name": "transferFrom",
            "outputs": [
                {
                    "internalType": "bool",
                    "name": "",
                    "type": "bool"
                }
            ],
            "stateMutability": "nonpayable",
            "type": "function"
        }
    ],
    "bytecode": "60806040526509184e72a000600e8190556200001e906102ee62000523565b600f55600e5462000032906103e862000523565b601055620f4240601255622dc6c0601355625b8d806014553480156200005757600080fd5b50604080518082018252600d81526c21b93cb83a37a6b7b739ba32b960991b60208083019190915282518084018452600481526321a6a7a760e11b81830152336000908152918290529290206298968090819055600281905591600c906003620000c28482620005e2565b506004805460ff191660ff84161790556005620000e08282620005e2565b5050505050620000fa30629896806200037b60201b60201c565b5060088054758a6dc83c48829e6aa19bb457c7ade3a83cbbde40000062010000600160b01b03199091161790557f31fc2bfacae2131237ffc5cdf742f7082fdbe013f75833898272b8e728d730f2805460ff1990811660019081179092557f21066e4780d05037a42c49f4ac466c907317ac33fee312a8651e0c88c62945208054821660021790557f21a481ec62260d5afd4f1cddba86204dd354303c153d49bdc216f2db2778a48c80548216600317905560076020527f427ad6d0855ff6b40a63b94c22385eb84c84ec203a612e39326eb54f3081b04980548216831790557ff5987aaab45ddda0ece520c24c0212efb61dec0f2f74ef87a98a515a28d0b13f80548216831790557fd27f69151b91b30ef048552fe4f256e4b394f667e80dd5796e08fc10977bcfcc80548216831790557f6b0cb16a72a9f24b56ec7796751b0e1fa711d64148e2d3fb1ab4ac951fc3c51b80548216831790557fe30f024433e93d1c3567d2c949464e9c22b3ce7c9badc39b3a7d33d5977e41ce8054821683179055738ad59af8c44543508bb6581676b6ceaba2d1792760008190527fb8017ce73783e79d79a0053a0d6904c4464e51167ffdda0d279b479a61d6d5f180549092169092179055738a6dc83c48829e6aa19bb457c7ade3a83cbbde409073507837ec8bd3351942d34d2a9dce5b0344f8981290735496320b868c43f87d24b42edebb8e7b27f3df639073ee8161bab0afd27a2ad0fc3ec1c0c2cb6ac975949073f383a6797b5487c14324ac4fcce329f2a2c17bd1906200034083620493e0620003e9565b50620003508262061a80620003e9565b50620003608162030d40620003e9565b50506008805460ff1916600117905550620006da9350505050565b3360008181526001602090815260408083206001600160a01b038716808552925280832085905551919290917f8c5be1e5ebec7d5bd14f71427d1e84f3dd0314c0f7b2291e5b200ac8c7c3b92590620003d79086815260200190565b60405180910390a35060015b92915050565b6000620003f78383620003fe565b9392505050565b336000908152602081905260408120548211156200047a5760405162461bcd60e51b815260206004820152602f60248201527f746f6b656e2062616c616e6365206973206c6f776572207468616e207468652060448201526e1d985b1d59481c995c5d595cdd1959608a1b606482015260840160405180910390fd5b33600090815260208190526040812080548492906200049b908490620006ae565b90915550506001600160a01b03831660009081526020819052604081208054849290620004ca908490620006c4565b90915550506040518281526001600160a01b0384169033907fddf252ad1be2c89b69c2b068fc378daa952ba7f163c4a11628f55a4df523b3ef90602001620003d7565b634e487b7160e01b600052601160045260246000fd5b8082028115828204841417620003e357620003e36200050d565b634e487b7160e01b600052604160045260246000fd5b600181811c908216806200056857607f821691505b6020821081036200058957634e487b7160e01b600052602260045260246000fd5b50919050565b601f821115620005dd57600081815260208120601f850160051c81016020861015620005b85750805b601f850160051c820191505b81811015620005d957828155600101620005c4565b5050505b505050565b81516001600160401b03811115620005fe57620005fe6200053d565b62000616816200060f845462000553565b846200058f565b602080601f8311600181146200064e5760008415620006355750858301515b600019600386901b1c1916600185901b178555620005d9565b600085815260208120601f198616915b828110156200067f578886015182559484019460019091019084016200065e565b50858210156200069e5787850151600019600388901b60f8161c191681555b5050505050600190811b01905550565b81810381811115620003e357620003e36200050d565b80820180821115620003e357620003e36200050d565b611b7280620006ea6000396000f3fe6080604052600436106101cd5760003560e01c806370a08231116100f7578063b2adc1d911610095578063e1c7392a11610064578063e1c7392a14610560578063eced028014610575578063f483f3ba1461058a578063fe4864af1461059f57600080fd5b8063b2adc1d9146104d2578063ba9b5ae6146104f2578063bd3e19d414610505578063dd62ed3e1461051a57600080fd5b80638b915c25116100d15780638b915c251461048057806395d89b4114610495578063a6f2ae3a146104aa578063a9059cbb146104b257600080fd5b806370a0823114610429578063879985ad146104495780638813ce121461045e57600080fd5b806323b872dd1161016f57806344a0d68a1161013e57806344a0d68a14610363578063462785ee14610383578063561cd462146103c95780635c658165146103f157600080fd5b806323b872dd146102ca57806327e235e3146102ea578063313ce567146103175780633a665d421461034357600080fd5b806318160ddd116101ab57806318160ddd146102445780631863c589146102685780631865c57d1461028857806321670f22146102aa57600080fd5b806306fdde03146101d2578063095ea7b3146101fd578063158441981461022d575b600080fd5b3480156101de57600080fd5b506101e76105b4565b6040516101f491906115f0565b60405180910390f35b34801561020957600080fd5b5061021d61021836600461161f565b610642565b60405190151581526020016101f4565b34801561023957600080fd5b506102426106af565b005b34801561025057600080fd5b5061025a60025481565b6040519081526020016101f4565b34801561027457600080fd5b50610242610283366004611649565b610740565b34801561029457600080fd5b5061029d6107e7565b6040516101f491906116b2565b3480156102b657600080fd5b506102426102c536600461161f565b610849565b3480156102d657600080fd5b5061021d6102e53660046116f7565b6108ae565b3480156102f657600080fd5b5061025a610305366004611733565b60006020819052908152604090205481565b34801561032357600080fd5b506004546103319060ff1681565b60405160ff90911681526020016101f4565b34801561034f57600080fd5b5061024261035e36600461174e565b610981565b34801561036f57600080fd5b5061024261037e36600461174e565b610992565b34801561038f57600080fd5b506103bc61039e366004611733565b6001600160a01b031660009081526006602052604090205460ff1690565b6040516101f49190611767565b3480156103d557600080fd5b5061025a6103e4366004611733565b6001600160a01b03163190565b3480156103fd57600080fd5b5061025a61040c36600461177a565b600160209081526000928352604080842090915290825290205481565b34801561043557600080fd5b5061025a610444366004611733565b6109e8565b34801561045557600080fd5b5061025a610a3e565b34801561046a57600080fd5b50610473610b5b565b6040516101f491906117ad565b34801561048c57600080fd5b5060095461025a565b3480156104a157600080fd5b506101e7610d67565b610242610d74565b3480156104be57600080fd5b5061021d6104cd36600461161f565b610dec565b3480156104de57600080fd5b506102426104ed36600461184d565b610fc9565b3480156104fe57600080fd5b504261025a565b34801561051157600080fd5b5061025a61110d565b34801561052657600080fd5b5061025a61053536600461177a565b6001600160a01b03918216600090815260016020908152604080832093909416825291909152205490565b34801561056c57600080fd5b50610242611191565b34801561058157600080fd5b506103bc61119b565b34801561059657600080fd5b50600a5461025a565b3480156105ab57600080fd5b5061025a6111f7565b600380546105c1906118fe565b80601f01602080910402602001604051908101604052809291908181526020018280546105ed906118fe565b801561063a5780601f1061060f5761010080835404028352916020019161063a565b820191906000526020600020905b81548152906001019060200180831161061d57829003601f168201915b505050505081565b3360008181526001602090815260408083206001600160a01b038716808552925280832085905551919290917f8c5be1e5ebec7d5bd14f71427d1e84f3dd0314c0f7b2291e5b200ac8c7c3b9259061069d9086815260200190565b60405180910390a35060015b92915050565b60013360009081526006602052604090205460ff1660038111156106d5576106d561167e565b146106fb5760405162461bcd60e51b81526004016106f290611932565b60405180910390fd5b6009541561073a5760405162461bcd60e51b815260206004820152600c60248201526b185b1c9958591e481a5b9a5d60a21b60448201526064016106f2565b42600955565b60023360009081526006602052604090205460ff1660038111156107665761076661167e565b146107835760405162461bcd60e51b81526004016106f290611932565b6000828152600b6020818152604080842060028101546001600160a01b0316855260078352908420805460ff19168615151790558584529190528181559081906107d06001830182611519565b5060020180546001600160a01b0319169055505050565b6107ef611556565b6040518060a0016040528061080360095490565b8152602001428152602001610817600a5490565b81526020016108246111f7565b815260200161083161119b565b60038111156108425761084261167e565b9052919050565b60033360009081526006602052604090205460ff16600381111561086f5761086f61167e565b1461088c5760405162461bcd60e51b81526004016106f290611932565b6008546108a9906201000090046001600160a01b0316838361121f565b505050565b6008546000906001600160a01b036201000090910481169085160361096e5760006108d761119b565b90506108e1610a3e565b8311156109225760405162461bcd60e51b815260206004820152600f60248201526e1bdd995c881d1a195b881b1a5b5a5d608a1b60448201526064016106f2565b82601160008360038111156109395761093961167e565b600381111561094a5761094a61167e565b815260200190815260200160002060008282546109679190611971565b9091555050505b61097984848461121f565b949350505050565b61098c81603c611984565b600a5550565b60033360009081526006602052604090205460ff1660038111156109b8576109b861167e565b146109d55760405162461bcd60e51b81526004016106f290611932565b600e546109e29082611984565b60105550565b6000806109f361119b565b90506000816003811115610a0957610a0961167e565b03610a175750600092915050565b6001600160a01b0383166000908152602081905260409020545b9392505050565b50919050565b600080610a4961119b565b90506000816003811115610a5f57610a5f61167e565b03610a6c57600091505090565b6001816003811115610a8057610a8061167e565b03610a8d57600091505090565b6002816003811115610aa157610aa161167e565b03610ae557600260005260116020527f08037d7b151cc412d25674a4e66b334d9ae9d2e5517a7feaae5cdb828bf1c62854601254610adf919061199b565b91505090565b60116020527f9bfbaa59f8e10e7868f8b402de9d605a390c45ddaebd8c9de3c6f31e733c87ff5460026000527f08037d7b151cc412d25674a4e66b334d9ae9d2e5517a7feaae5cdb828bf1c62854601454601254610b439190611971565b610b4d919061199b565b610adf919061199b565b5090565b60606000805b600d54811015610bab576000818152600b60205260409020600201546001600160a01b031615610b995781610b95816119ae565b9250505b80610ba3816119ae565b915050610b61565b508067ffffffffffffffff811115610bc557610bc5611837565b604051908082528060200260200182016040528015610c2357816020015b610c106040518060600160405280600081526020016060815260200160006001600160a01b031681525090565b815260200190600190039081610be35790505b5091506000805b82811015610d61576000818152600b60205260409020600201546001600160a01b031615610d4f57600b600082815260200190815260200160002060405180606001604052908160008201548152602001600182018054610c8a906118fe565b80601f0160208091040260200160405190810160405280929190818152602001828054610cb6906118fe565b8015610d035780601f10610cd857610100808354040283529160200191610d03565b820191906000526020600020905b815481529060010190602001808311610ce657829003601f168201915b5050509183525050600291909101546001600160a01b03166020909101528451859084908110610d3557610d356119c7565b60200260200101819052508180610d4b906119ae565b9250505b80610d59816119ae565b915050610c2a565b50505090565b600580546105c1906118fe565b6000610d7e61110d565b610d8890346119dd565b905060008111610dcb5760405162461bcd60e51b815260206004820152600e60248201526d0dcdee840cadcdeeaced0408aa8960931b60448201526064016106f2565b600854610de8906201000090046001600160a01b0316338361121f565b5050565b600080610df761119b565b90506000816003811115610e0d57610e0d61167e565b03610e4d5760405162461bcd60e51b815260206004820152601060248201526f10d353d388191bd95cdb9d081a5b9a5d60821b60448201526064016106f2565b6001816003811115610e6157610e6161167e565b03610ecb576008546201000090046001600160a01b03163314610ec65760405162461bcd60e51b815260206004820152601f60248201527f6f6e6c79206f776e65722063616e207472616e7366657220617420736565640060448201526064016106f2565b610f13565b6002816003811115610edf57610edf61167e565b03610f13573360009081526007602052604090205460ff16610f135760405162461bcd60e51b81526004016106f2906119ff565b6008546201000090046001600160a01b03163303610fbf57610f33610a3e565b831115610f745760405162461bcd60e51b815260206004820152600f60248201526e1bdd995c881d1a195b881b1a5b5a5d608a1b60448201526064016106f2565b8260116000836003811115610f8b57610f8b61167e565b6003811115610f9c57610f9c61167e565b81526020019081526020016000206000828254610fb99190611971565b90915550505b6109798484611414565b3360009081526007602052604090205460ff16156110295760405162461bcd60e51b815260206004820152601860248201527f796f7520616c726561647920696e2077686974656c697374000000000000000060448201526064016106f2565b336000908152600c602052604090205460ff16156110895760405162461bcd60e51b815260206004820152601860248201527f796f7520616c72656164792073656e742072657175657374000000000000000060448201526064016106f2565b60408051606081018252600d54808252602080830185815233848601526000928352600b90915292902081518155915190919060018201906110cb9082611a7c565b5060409190910151600290910180546001600160a01b0319166001600160a01b03909216919091179055600d8054906000611105836119ae565b919050555050565b60008061111861119b565b9050600081600381111561112e5761112e61167e565b148061114b575060018160038111156111495761114961167e565b145b156111685760405162461bcd60e51b81526004016106f2906119ff565b600281600381111561117c5761117c61167e565b03611189575050600f5490565b505060105490565b6111996106af565b565b6000806111a760095490565b6111af6111f7565b6111b9919061199b565b9050806000036111cb57600091505090565b61012c8110156111dd57600191505090565b6102588110156111ef57600291505090565b600391505090565b600061120260095490565b1561121957600a546112149042611971565b905090565b50600090565b60085460009060ff161561136157600061123761119b565b9050600081600381111561124d5761124d61167e565b0361128d5760405162461bcd60e51b815260206004820152601060248201526f10d353d388191bd95cdb9d081a5b9a5d60821b60448201526064016106f2565b60018160038111156112a1576112a161167e565b0361130e576008546001600160a01b038681166201000090920416146113095760405162461bcd60e51b815260206004820152601f60248201527f6f6e6c79206f776e65722063616e207472616e7366657220617420736565640060448201526064016106f2565b61135f565b60028160038111156113225761132261167e565b0361135f576001600160a01b03851660009081526007602052604090205460ff1661135f5760405162461bcd60e51b81526004016106f2906119ff565b505b6001600160a01b03831660009081526020819052604081208054849290611389908490611971565b90915550506001600160a01b038416600090815260208190526040812080548492906113b690849061199b565b92505081905550826001600160a01b0316846001600160a01b03167fddf252ad1be2c89b69c2b068fc378daa952ba7f163c4a11628f55a4df523b3ef8460405161140291815260200190565b60405180910390a35060019392505050565b3360009081526020819052604081205482111561148b5760405162461bcd60e51b815260206004820152602f60248201527f746f6b656e2062616c616e6365206973206c6f776572207468616e207468652060448201526e1d985b1d59481c995c5d595cdd1959608a1b60648201526084016106f2565b33600090815260208190526040812080548492906114aa90849061199b565b90915550506001600160a01b038316600090815260208190526040812080548492906114d7908490611971565b90915550506040518281526001600160a01b0384169033907fddf252ad1be2c89b69c2b068fc378daa952ba7f163c4a11628f55a4df523b3ef9060200161069d565b508054611525906118fe565b6000825580601f10611535575050565b601f0160209004906000526020600020908101906115539190611595565b50565b6040518060a0016040528060008152602001600081526020016000815260200160008152602001600060038111156115905761159061167e565b905290565b5b80821115610b575760008155600101611596565b6000815180845260005b818110156115d0576020818501810151868301820152016115b4565b506000602082860101526020601f19601f83011685010191505092915050565b602081526000610a3160208301846115aa565b80356001600160a01b038116811461161a57600080fd5b919050565b6000806040838503121561163257600080fd5b61163b83611603565b946020939093013593505050565b6000806040838503121561165c57600080fd5b823591506020830135801515811461167357600080fd5b809150509250929050565b634e487b7160e01b600052602160045260246000fd5b6004811061155357634e487b7160e01b600052602160045260246000fd5b600060a0820190508251825260208301516020830152604083015160408301526060830151606083015260808301516116ea81611694565b8060808401525092915050565b60008060006060848603121561170c57600080fd5b61171584611603565b925061172360208501611603565b9150604084013590509250925092565b60006020828403121561174557600080fd5b610a3182611603565b60006020828403121561176057600080fd5b5035919050565b6020810161177483611694565b91905290565b6000806040838503121561178d57600080fd5b61179683611603565b91506117a460208401611603565b90509250929050565b60006020808301818452808551808352604092508286019150828160051b87010184880160005b8381101561182957603f19898403018552815160608151855288820151818a870152611802828701826115aa565b928901516001600160a01b03169589019590955250948701949250908601906001016117d4565b509098975050505050505050565b634e487b7160e01b600052604160045260246000fd5b60006020828403121561185f57600080fd5b813567ffffffffffffffff8082111561187757600080fd5b818401915084601f83011261188b57600080fd5b81358181111561189d5761189d611837565b604051601f8201601f19908116603f011681019083821181831017156118c5576118c5611837565b816040528281528760208487010111156118de57600080fd5b826020860160208301376000928101602001929092525095945050505050565b600181811c9082168061191257607f821691505b602082108103610a3857634e487b7160e01b600052602260045260246000fd5b6020808252600f908201526e3cb7ba903237b713ba1037bbb732b960891b604082015260600190565b634e487b7160e01b600052601160045260246000fd5b808201808211156106a9576106a961195b565b80820281158282048414176106a9576106a961195b565b818103818111156106a9576106a961195b565b6000600182016119c0576119c061195b565b5060010190565b634e487b7160e01b600052603260045260246000fd5b6000826119fa57634e487b7160e01b600052601260045260246000fd5b500490565b602080825260159082015274199c9959481cd85b19481b9bdd081cdd185c9d1959605a1b604082015260600190565b601f8211156108a957600081815260208120601f850160051c81016020861015611a555750805b601f850160051c820191505b81811015611a7457828155600101611a61565b505050505050565b815167ffffffffffffffff811115611a9657611a96611837565b611aaa81611aa484546118fe565b84611a2e565b602080601f831160018114611adf5760008415611ac75750858301515b600019600386901b1c1916600185901b178555611a74565b600085815260208120601f198616915b82811015611b0e57888601518255948401946001909101908401611aef565b5085821015611b2c5787850151600019600388901b60f8161c191681555b5050505050600190811b0190555056fea2646970667358221220bde3de51720f456e75a041e1c1a80238e42448138dcc99c09c22393363132cf364736f6c63430008130033",
    "sourcePath": "c:/Users/maxek/Desktop/WSR/wsr1/project/contracts/CMON.sol",
    "compiler": {
        "name": "solc",
        "version": "0.8.19+commit.7dd6d404"
    },
    "functionHashes": {
        "allowance(address,address)": "dd62ed3e",
        "allowed(address,address)": "5c658165",
        "answerRequest(uint256,bool)": "1863c589",
        "approve(address,uint256)": "095ea7b3",
        "balanceOf(address)": "70a08231",
        "balanceOfETH(address)": "561cd462",
        "balances(address)": "27e235e3",
        "buy()": "a6f2ae3a",
        "decimals()": "313ce567",
        "getCost()": "bd3e19d4",
        "getPhase()": "eced0280",
        "getRemains()": "879985ad",
        "getRequests()": "8813ce12",
        "getRoleID(address)": "462785ee",
        "getState()": "1865c57d",
        "getTimeDif()": "f483f3ba",
        "getTimeNow()": "ba9b5ae6",
        "getTimeStart()": "8b915c25",
        "getTimeSystem()": "fe4864af",
        "init()": "e1c7392a",
        "name()": "06fdde03",
        "reward(address,uint256)": "21670f22",
        "sendRequest(string)": "b2adc1d9",
        "setCost(uint256)": "44a0d68a",
        "setTimeDif(uint256)": "3a665d42",
        "setTimeStart()": "15844198",
        "symbol()": "95d89b41",
        "totalSupply()": "18160ddd",
        "transfer(address,uint256)": "a9059cbb",
        "transferFrom(address,address,uint256)": "23b872dd"
    },
    "gasEstimates": {
        "creation": {
            "codeDepositCost": "1405200",
            "executionCost": "infinite",
            "totalCost": "infinite"
        },
        "external": {
            "allowance(address,address)": "infinite",
            "allowed(address,address)": "infinite",
            "answerRequest(uint256,bool)": "infinite",
            "approve(address,uint256)": "24569",
            "balanceOf(address)": "infinite",
            "balanceOfETH(address)": "3057",
            "balances(address)": "2590",
            "buy()": "infinite",
            "decimals()": "2403",
            "getCost()": "infinite",
            "getPhase()": "infinite",
            "getRemains()": "infinite",
            "getRequests()": "infinite",
            "getRoleID(address)": "2686",
            "getState()": "infinite",
            "getTimeDif()": "2380",
            "getTimeNow()": "258",
            "getTimeStart()": "2337",
            "getTimeSystem()": "4633",
            "init()": "26660",
            "name()": "infinite",
            "reward(address,uint256)": "infinite",
            "sendRequest(string)": "infinite",
            "setCost(uint256)": "26788",
            "setTimeDif(uint256)": "22529",
            "setTimeStart()": "26683",
            "symbol()": "infinite",
            "totalSupply()": "2341",
            "transfer(address,uint256)": "infinite",
            "transferFrom(address,address,uint256)": "infinite"
        },
        "internal": {
            "_transfer(address,uint256)": "infinite",
            "_transferFrom(address,address,uint256)": "infinite"
        }
    }
}